:020000040000FA
:10000000E0180010750200007D0200007F02000071
:100010008102000083020000850200000000000051
:100020000000000000000000000000008702000047
:1000300089020000000000002B9300004B360000F6
:100040008F0200008F0200008F0200008F0200006C
:100050008F020000EB680000275F00006362000071
:100060009F6500008F0200008F0200008F020000D9
:100070008F0200008F0200008F0200008F0200003C
:100080008F0200008F0200008F0200008F0200002C
:100090008F0200008F0200008F0200008F0200001C
:1000A0008F0200008F0200008F0200008F0200000C
:1000B0008F0200008F0200008F0200008F020000FC
:1000C0008F0200008F0200008F02000000F002F893
:1000D00000F0B0F80AA090E8000C82448344AAF132
:1000E0000107DA4501D100F0A5F8AFF2090EBAE830
:1000F0000F0013F0010F18BFFB1A43F0010318475C
:100100008C990000CC9900000A444FF0000C10F8C4
:10011000013B13F0070408BF10F8014B1D1108BF85
:1001200010F8015B641E05D010F8016B641E01F825
:10013000016BF9D113F0080F1EBF10F8014BAD1C75
:100140000C1B09D16D1E58BF01F801CBFAD505E093
:1001500014F8016B01F8016B6D1EF9D59142D6D3ED
:10016000704700000023002400250026103A28BF15
:1001700078C1FBD8520728BF30C148BF0B60704719
:100180006E2907F0F786702908F03980662909F092
:100190000E82652909F00B82672909F0088261291E
:1001A000AFF3008003681B0A28BF41F08001692972
:1001B00007F0A486642907F0A186752907F09E86BA
:1001C0006F2907F0C687782908F00580E92907F02C
:1001D0006187E42907F05E87F52907F05B87EF293F
:1001E00007F0C387F82908F004800368DB0928BFFB
:1001F00041F08001632908F08683732908F08B831E
:10020000E32908F09683F32908F09B8300207047C8
:100210001FB508F0E7FB04000020002109F0E6F814
:10022000401C60600020002109F0CAF8E0601FBD9A
:1002300010B510BD08F0A9FB1146FFF7E9FF00F06B
:1002400008F808F081FC03B4FFF7F2FF03BC08F0E4
:1002500089FC10B503F0C6FA00F02CF806F029FE70
:10026000002010BD70477047704770477047704757
:10027000704770470948804709480047FEE7FEE796
:10028000FEE7FEE7FEE7FEE7FEE7FEE7FEE7FEE746
:1002900004480549034A054B70470000E537000054
:1002A000CD000000E0D80720E0180010E016001094
:1002B00000BFFEE710B50A2003F0A4FF012004F000
:1002C00005F8012004F020F84FF0FF301F2100282E
:1002D00004DBCA06130E064A135406E0CA06140EBF
:1002E000044A00F00F031B1FD45400BF10BD0000D0
:1002F00000E400E018ED00E070470000FFFFFFFFA2
:100300000146002002E0491C421CD0B20A78002AB3
:10031000F9D170472DE9F04105460E4614460027F5
:10032000FA48007820B1112020700020BDE8F0814B
:100330002878012808D0022807D0032802D00428F2
:1003400004D100E000BF00BF00BF03E00120207027
:100350000020EBE700BF08F0C7FF07466869306080
:100360003068FFF7CDFF8046384608F0C1FF002017
:1003700020704046DAE72DE9F04105460E46144666
:100380000027E248007818B112202070BDE8F08103
:100390002878012808D0022807D0032802D0042892
:1003A00004D100E000BF00BF00BF02E001202070C8
:1003B000ECE700BF08F098FF07466E61384608F08A
:1003C00097FF0020207000BFE0E7F0B5024612F86A
:1003D000384F95785678383A0B4618680FE000F198
:1003E0000B073F5DB74300F10B0C0CF80470674638
:1003F0003F5D17B9877AAF4387721B1D18680028C5
:10040000EDD1F0BDC249C34A1278885CC249095C8B
:10041000BF4A515C01EBC001C04A1170704710B572
:10042000002408F061FF0446B8480078F8B9BC48D9
:100430000078E0B9FFF7E6FFBA48B849097850F804
:100440002100B9490860B5480078B8490978884260
:100450000DD0B5480068C06B401CB3490968C8633B
:10046000B3480068401CB249086008F054FF2046B9
:1004700008F03EFF10BD70B501460024AD4D2D685B
:10048000EC61AC4C246821620B4618681BE0A94C57
:10049000246894F8385000F10B04645DA54D2D6874
:1004A00095F839502C43A34D2D6895F8386000F12C
:1004B0000B05AC55847A9F4D2D6895F83A502C4326
:1004C00084721B1D18680028E1D19A4C246894F8A6
:1004D0003820914CA45C974D2D6895F83950AC4369
:1004E0008D4DAC542C46A45C44B9924C246894F8CD
:1004F0003A50884C2478AC43864D2C7070BD2DE961
:10050000FF4F83B081460E461546DDF8408000203F
:1005100000903060CA46DAF8004018E020780628DB
:1005200007D2DFE800F00604050307080AE009E047
:1005300008E000BF00BF012088F80000002007B0DD
:10054000BDE8F08F00BF0AF1040ADAF80040002C81
:10055000E4D16E48007820B1022088F80000002025
:10056000EDE76F48007820B10D2088F800000020EA
:10057000E5E708F0B9FE0090002002908346019064
:10058000CA46DAF800405DE02078062849D2DFE864
:1005900000F048172A03494A208960B12089401E8B
:1005A000208110C601200290002001C50BF101003E
:1005B0001FFA80FB03E0019840F0010001903CE04D
:1005C000606858B1606801C50020606010C60120F5
:1005D00002900BF101001FFA80FB03E0019840F04C
:1005E0000200019029E06768F88AA8B13969081DFE
:1005F0003861086801C5B9683869884201D17868EE
:100600003861F88A401EF88210C6012002900BF172
:1006100001001FFA80FB03E0019840F00400019004
:100620000BE000BF00BF009808F062FE00203060C1
:10063000012088F80000584681E700BF0AF1040A4B
:10064000DAF80040002C9FD10298012809D100203F
:100650003060009808F04CFE002088F800005846F2
:100660006DE73448006890F83400019941F080014A
:1006700008433049096881F8340000202D49096891
:1006800081F835002B490698096808634846FFF74A
:10069000F2FE009808F02CFEFFF7C1FE08F024FEE1
:1006A00000902448006890F8350020B101281BD044
:1006B000022818D100E000BF1E480068C4693CB1A0
:1006C00010C6002030600BF101001FFA80FB09E02A
:1006D00001201849096881F8350049461548006825
:1006E000FFF773FE06E000BF494612480068FFF7B7
:1006F0006CFE00BF00BF0F48006890F83500D8B10D
:10070000012842D002283FD138E000001900001033
:10071000B29500001D0000101E0000101C0000100B
:100720001A000010B8060010340000101B00001062
:10073000000000102C000010207806280DD2DFE801
:1007400000F00C0607030D0E002001C511E000BFEC
:10075000FD480068406A01C50BE000BF00BF00987B
:1007600008F0C6FD00203060012088F800005846DF
:10077000E5E600BF002088F800000CE0002001C57D
:100780000E2088F8000006E000BF002001C50A2006
:1007900088F8000000BF00BF0020EB49096881F81D
:1007A0003400E949096881F83500E7490968C861FA
:1007B000E54909680862E44909684862009808F058
:1007C00097FD5846BBE67CB5002514E069462846EF
:1007D00002F0E3F8064666B9DC4850F8254044B11B
:1007E000012C06D0D4E9020100EB8100A06401983D
:1007F000E064681CC5B23F2DE8D97CBD002400BF71
:1008000002E0142002F0D2F9D14800780028F8D094
:10081000D04800686421B0FBF1F0CE49086008467A
:10082000006828B90020CC490870FF2002F0F7F8D2
:1008300000BF08F059FD0446C8480068C849086070
:100840000020C6490860204608F052FDC4480068F0
:10085000C0490968B0FBF1F0C0F16400BE490870FE
:1008600002F088FEFFF7AFFF0A2002F09FF9E0E7F1
:1008700000B587B0032000218022BA4BCDE90132B8
:10088000CDE903104FF6FE703E23B74A0090AFF259
:10089000930001F094FE06AAB4A13E2001F0FFFFF0
:1008A00007B000BD002400BF00BF08F01DFD0446D6
:1008B000AA480068401CA9490860204608F018FDB5
:1008C00002F04EFEF1E700B587B003200021802240
:1008D000AA4BCDE90132CDE903104FF6FF703F235B
:1008E000A74A0090AFF2430001F069FE06AAA5A155
:1008F0003F2001F0D4FF07B000BD04E0002200F863
:10090000012B4A1E91B20029F8D1704770B5F02131
:10091000A048FFF7F2FF002411E0601C85B204EB51
:1009200044009C4901EBC00305EB450001EBC00608
:10093000002018705E6098A05861601C84B2092C79
:10094000EBD304EB4400934901EBC0030020187083
:10095000586091A0586108469049086070BD70B514
:100960004FF4F2618E48FFF7C8FF4FF4807177486B
:10097000FFF7C3FF002413E0601CC5B204EB440082
:1009800000EBC400864901EBC00305EB450000EB1A
:10099000C50001EBC0065E617FA01865601CC4B293
:1009A000152CE9D304EB440000EBC4007C4901EBB7
:1009B000C0030020586178A01865002079490860BC
:1009C00077487949086070BD0021784A117000208D
:1009D00004E00021764A1154411CC8B20828F8D31B
:1009E0000021744A1170744A1170744A1160564A99
:1009F000116070470020724908607249087072499E
:100A00000870724908707249087072490860534949
:100A10000860534908604F4908604D4908707047A5
:100A200010B502F081FDFFF7E5FFFFF7CDFFFFF7FF
:100A300096FFFFF76BFF00F0B3FE00F0A4FF01F09C
:100A4000A6FAFFF740FFFFF713FF02F035FC02F0B4
:100A50007AFD02F0BBFC10BD5D480078012808D18A
:100A600058480078FF2804D256480078401C554961
:100A70000870704710B5002455480078012830D11F
:100A800008F032FC04464F48007820B14D48007809
:100A9000401E4C4908704B480078F8B94A48007825
:100AA000E0B9FFF7AFFC29484349097850F8210025
:100AB00042490860404800783E49097888420DD094
:100AC0003E480068C06B401C3C490968C863414807
:100AD0000068401C3F49086008F022FC204608F0EE
:100AE00007FC10BD10B5002439480078012811D149
:100AF00008F0FAFB04463348007840B932480078E1
:100B0000FF2804D230480078401C2F490870204646
:100B100008F0EEFB10BD10B500242D480078012828
:100B20006CD108F0E1FB04462748007850B1264814
:100B30000078401E244908700846007818B92148FA
:100B4000007849E057E052E02C000010B806001091
:100B500018000010100000100C00001028000010F9
:100B600014000010B8020010B404001075432F4F99
:100B7000532D49492053746174000000B8040010DB
:100B8000B406001075432F4F532D49492049646C1A
:100B900065000000780100103F0000000400001014
:100BA000B807001038000010300000101D000010C1
:100BB0001E0000101B0000101C000010340000106C
:100BC00048000010190000101A0000102700001043
:100BD000260000100000001028B9204608F088FB0D
:100BE000FFF71DFC0AE0204608F082FB06E02046E5
:100BF00008F07EFB02E0204608F07AFB10BD10B53D
:100C0000EA48007890B9FFF7FDFBE9480078E94928
:100C10000870E948E649097850F82100E74908607A
:100C200008460068E649086008F065FB10BD10B58D
:100C30000024022001F0BAFF08F056FB0446002011
:100C4000E0490860204608F053FB0A2001F0AEFF9F
:100C500008F04AFB0446DB480068DB4908600120D5
:100C6000DA490870204608F043FB10BD70B5002635
:100C700002F0DAFC08F038FB0646D5480068401C54
:100C8000D3490860304608F033FBC8480078012893
:100C900053D1D048007820B1012804D0022809D1CE
:100CA00003E001250BE0002509E001250120C949E9
:100CB000087004E001250020C649087000BF00BF8D
:100CC00005B970BDC448046833E008F00DFB064662
:100CD000206B50B3206B401E2063206B28BB94F820
:100CE000340000F0370040B114F8340F00F0C800B1
:100CF000207001206070343C02E0002084F8350050
:100D000094F8340000F0080078B93834A078B3497A
:100D100009780843B14908702078B149085C6178C6
:100D2000084314F83819AE4A50546469304608F044
:100D3000DFFA94F836003F28C7D100BFC1E740F280
:100D400023107047704710B590F8382001F10B035D
:100D50009B5C90F83940A34301F10B04A354234654
:100D60009B5C23B98B7A90F83A40A3438B7210BDF9
:100D70002DE9F04F05460F4690469946A87A9949C5
:100D80000E5C05F10B00805D11F800B00BEBC600A6
:100D900000F0FF0A884850F82A4000202434E06020
:100DA0002760207C20EA0800207484F81190207CC1
:100DB000243C00F0080068B994F83A0087490978A3
:100DC0000843864908708648805D94F839100843C6
:100DD0008349885529462046FFF7B5FF206A20B190
:100DE0002046216AFFF7F1FAE5615046BDE8F08F31
:100DF00010B5734A1268D061714A126892F838309F
:100E000000F10B02D25C6E4B1B6893F839301A4329
:100E10006B4B1B6893F8384000F10B031A55827A2C
:100E2000674B1B6893F83A301A438272644A12681F
:100E300092F838106A4A525C614B1B6893F839305B
:100E40009A43674B5A541A46525C42B95C4A12683C
:100E500092F83A30614A12789A43604B1A7010BD8A
:100E6000014600228A72002005E0002301F10B02F6
:100E70001354421CD0B20828F7D3704705E011F88C
:100E8000013B00F8013B531E9AB2002AF7D170478C
:100E90002DE9F84F05460F4690469946DDE90AAB25
:100EA0000020009008F020FA00904F480468002CC1
:100EB00076D01C3454F8080C4B490860009808F0B0
:100EC00017FA44F81C7CA5760020207660766061D5
:100ED00044F818BC44F810AC44F8148C0C9824F86E
:100EE0000C0C24F80A9C0020E077E810207705F02D
:100EF0000700E076217F01208840A077E17E012075
:100F000088406077002020606060E060A060206220
:100F1000A0626062E0622063AFF2843060631C3CD8
:100F2000002606E0002104F1540040F82610701C51
:100F3000C6B2002EF6D0204602F070FB204602F02A
:100F400003FB08F0D1F900901B4840F825402248E7
:100F5000006860610020A0611F48006810B11E4851
:100F6000006884611C4804603834A0781B49097803
:100F700008431A49087020781949085C61780843C9
:100F800014F83819164A505418480078401C17496C
:100F90000870009808F0ACF90020BDE8F88FFFE772
:100FA000009808F0A5F94220F7E70000260000109D
:100FB0001C0000101B000010B806001034000010C8
:100FC0002C00001028000010100000101800001065
:100FD000480000103C000010380000101D000010F8
:100FE0001E000010B2950000300000102700001015
:100FF0002DE9F05F04460F4691461E464FF0000B68
:101000002078052804D0012030700020BDE8F09F32
:1010100009F0800ABAF1000F04D029F080094FF0DE
:10102000010801E04FF000080020307008F05CF982
:101030008346B9F1000F2CD0B9F1010F3BD0B9F1C3
:10104000020F03D0B9F1030F46D111E0208900EA65
:101050000705BD4206D1B8F1010F05D12089A8438B
:10106000208101E070203070584608F041F93AE0E4
:10107000208900EA070535B1B8F1010F05D12089B3
:10108000A843208101E070203070584608F030F904
:1010900029E0208927EA0005BD4206D1B8F1010FF9
:1010A00005D120892843208101E070203070584606
:1010B00008F01EF917E0208927EA000535B1B8F1DC
:1010C000010F05D120892843208101E07020307074
:1010D000584608F00DF906E0584608F009F90025D1
:1010E0006F20307000BF00BF28468FE72DE9F04128
:1010F00006460D460027FA48007820B110202870D7
:101100000020BDE8F08108F0EFF80746F5480468D4
:1011100084B100684068F34908600520207026818A
:1011200000206060F0A0E060384608F0E1F80020A0
:10113000287004E0384608F0DBF87220287020465A
:10114000DFE730B501464A6808682AB9CC686060B4
:1011500028B10025456002E0106000B142608B6854
:1011600000259D6230BDF0B506460F46B4680020EC
:101170002C3460602780207A00F0DF00207200208D
:101180006072207A2C3C88B93834A078D749097825
:101190000843D64908702078D549085C617808432F
:1011A00014F83819D24A5054012500E00025304681
:1011B000FFF7C7FF2846F0BD2DE9F04704468946F2
:1011C00015464FF0000AC648007820B10F2028705D
:1011D0002046BDE8F0872078052803D0012028703C
:1011E0002046F6E708F080F88246606808B10127DB
:1011F00000E00027B9F1000F03D0B9F1010F3CD195
:1012000019E08FB9B8A0E06000202070B5480068F0
:10121000606000202081B3480460504608F068F800
:1012200000202870002605E0504608F061F84920AB
:101230002870264628E0D4F8048005E000214046C6
:10124000FFF791FFD8F80080B8F1000FF6D1A6A003
:10125000E06000202070A3480068606000202081CA
:10126000A0480460504608F043F8012F01D1FFF771
:10127000D6F800202870002606E0504608F038F81E
:1012800007202870264600BF00BF3046A1E72DE9A1
:10129000F04105460E46144600279148007820B1DB
:1012A000112020700020BDE8F08108F01DF80746ED
:1012B0002878052806D0384608F01AF80120207052
:1012C0000020F0E7E86830603068FFF719F88046E2
:1012D000384608F00DF8002020704046E3E72DE97D
:1012E000F04105460E46144600277D48007818B1A7
:1012F00012202070BDE8F08107F0F6FF074628783D
:10130000052805D0384607F0F3FF01202070F1E7EB
:10131000EE60384607F0ECFF0020207000BFE9E7E0
:10132000F0B51446059E734F3F6897F8347047F048
:101330002007DFF8C0C1DCF800C08CF8347000274B
:10134000DFF8B0C1DCF800C08CF83570694F3F6839
:101350003E63684F3F68B9620C828B74654F3F688B
:101360008F6047680F6000274F60C860456805B10F
:10137000696041605F4F3F6897F838205C4FBF5C01
:10138000DFF870C1DCF800C09CF839C027EA0C0710
:10139000DFF85CC10CF802706746BF5C5FB9554F5F
:1013A0003F6897F83AC0514F3F7827EA0C07DFF8BB
:1013B0003CC18CF80070F0BD2DE9F04F89B00546B6
:1013C0000F4691469A46129E0020029044480078AB
:1013D00028B102203070002009B0BDE8F08F4648E7
:1013E000007818B10D2030700020F5E72878052826
:1013F00003D0012030700020EEE709F0800BBBF134
:10140000000F04D009F07F094FF0010801E04FF010
:10141000000807F069FF0290B9F1000F4AD0B9F156
:10142000010F78D0B9F1020F03D0B9F1030F71D1D8
:1014300020E0288900EA0704BC420FD1B8F1010F6F
:1014400002D12889A04328812A480068848502980F
:1014500007F04EFF002030702046BDE74B463A466D
:1014600004A92846CDF800A0FFF75AFF029807F01C
:101470003FFF78E0288900EA07047CB1B8F1010F4A
:1014800002D12889A04328811A48006884850298DF
:1014900007F02EFF0020307020469DE74B463A466D
:1014A00004A92846CDF800A0FFF73AFF029807F0FC
:1014B0001FFF58E0288927EA0004BC421ED1B8F17A
:1014C000010F02D12889204328810A4800688485B9
:1014D000029807F00DFF0020307020467CE71AE0EC
:1014E00019000010080000103F0000001D0000104F
:1014F0001E0000102C0000101A0000104B463A4647
:1015000004A92846CDF800A0FFF70AFF029807F0CB
:10151000EFFE28E01FE0288927EA00047CB1B8F13B
:10152000010F02D1288920432881B14800688485B1
:10153000029807F0DDFE0020307020464CE74B4655
:101540003A4604A92846CDF800A0FFF7E9FE029824
:1015500007F0CEFE07E0029807F0CAFE00246F20D5
:101560003070204638E700BFFEF759FF07F0BCFE99
:1015700002909F48006890F8350020B39C480068AE
:1015800090F83500039000209949096881F83500EA
:1015900004A8FFF7D6FD00209549096881F83400BA
:1015A000029807F0A5FE00240398012805D0022820
:1015B00002D10E20307003E000BF0A20307000BF5F
:1015C00000BF204608E78A480068848DB8F1010F03
:1015D0001ED1B9F1000F0ED0B9F1010F0CD0B9F145
:1015E000020F03D0B9F1030F0AD100E000BF288930
:1015F000A04328810BE000BF28892043288106E012
:10160000029807F075FE6F2030700020E4E600BFFE
:10161000029807F06DFE002030702046DCE670B5C1
:10162000002507F061FE054671480068848D284654
:1016300007F05EFE204670BD2DE9FC5F044689463A
:1016400092461E46002000902078052804D00120F4
:1016500030700020BDE8FC9F07F046FE0090BAF114
:10166000000F03D0BAF1010F0AD104E0208920EA6B
:10167000090020810BE0208940EA0900208106E072
:10168000009807F035FE712030700020E2E700BFBF
:101690004FF0000B656855E0A87C40B3012838D0B6
:1016A000022802D0032844D111E02089298A00EAC7
:1016B0000107288AB84209D139462846FFF753FD69
:1016C0008046B8F1010F01D14FF0010B38E02089BD
:1016D000298A00EA01074FB139462846FFF743FD42
:1016E0008046B8F1010F01D14FF0010B28E0288AA4
:1016F000218920EA0107288AB84209D139462846BB
:10170000FFF731FD8046B8F1010F01D14FF0010B19
:1017100016E0288A218920EA01074FB13946284678
:10172000FFF721FD8046B8F1010F01D14FF0010B09
:1017300006E0009807F0DCFD6F203070002089E79C
:1017400000BF2D68002DA7D1009807F0D1FDBBF197
:10175000010F01D1FEF763FE07F0C6FD009020895E
:101760000190009807F0C4FD00203070019871E7E7
:101770002DE9F04104460D4600272078052804D0C5
:10178000012028700020BDE8F08107F0ADFD07467C
:101790002689384607F0ACFD002028703046F2E775
:1017A0002DE9F04150211348FFF7A7F800250EE07E
:1017B000681C86B20F4800EB051400EB06170020EA
:1017C00020706760AFF2E020E060681C85B2042DF5
:1017D000EED3084800EB0514002020706060AFF2E3
:1017E000F820E060034804490860BDE8F08100008B
:1017F0002C00001068020010080000102DE9FC5FAA
:1018000005460F4691469A460020009007F06CFD71
:1018100000906F480468006820B16D480068406817
:101820006B490860009807F063FD2CB95A208AF8CC
:1018300000000020BDE8FC9FA8462E46781E0190BF
:101840004FF0000B05E04E44C8F80060B0460BF1C5
:10185000010B01988345F6D30020C8F800002560ED
:1018600065602761E760C4F808908AF800002046A8
:10187000E0E72DE9F04104460D46002707F034FD6E
:101880000746206968B16668306860602069401E5C
:101890002061384607F02CFD002028703046BDE856
:1018A000F081384607F024FD5D2028700020F6E71F
:1018B0002DE9F04106460C461546002745480078BC
:1018C00020B1112028700020BDE8F08107F00CFD48
:1018D0000746706920602068FEF712FD8046384692
:1018E00007F006FD002028704046EDE72DE9F041A5
:1018F00005460E46144600273648007818B11220D7
:101900002070BDE8F08107F0EFFC07466E613846B5
:1019100007F0EEFC0020207000BFF2E770B504462F
:101920000D46002607F0E0FC0646D4E90310884285
:1019300004D3304607F0DCFC5E2070BD6068286090
:1019400065602069401C2061304607F0D1FC002012
:10195000F3E770B505460C46002607F0C5FC0646C1
:101960002868206068686060A868A060E868E06037
:1019700028692061304607F0BBFCD4E90301401A16
:101980006061002070BD70B578211348FEF7B5FF87
:1019900000240EE004EB44000F4901EBC005601C7D
:1019A00000EB400001EBC00068600CA06861601CA7
:1019B00084B2042CEED304EB4400074901EBC005CC
:1019C0000020686005A0686108460149086070BD94
:1019D0004000001019000010480F00103F000000E8
:1019E0002DE9F04106460D464FF0000830780228F8
:1019F00004D0012028700020BDE8F08107F074FCBD
:101A000080467468E08A78B12169081D20610F68FA
:101A1000E08A401EE082A1682069884201D16068A6
:101A200020610020287002E01F2028700027404617
:101A300007F05EFC3846DFE72DE9F04106460F4629
:101A40004FF00008F748007810B10020BDE8F081A1
:101A500007F04AFC8046F4480468006820B1F24868
:101A600000684068F0490860404607F041FCFCB15E
:101A700007F03AFC8046ED480568D5B1006800687B
:101A8000EA490860404607F033FC6E6006EB8700C9
:101A9000A860EE602E61AF820020E88202202070F4
:101AA000002020816560E2A060612046FFF7D8F940
:101AB00008E0DD4800686060DB480460404607F0ED
:101AC00017FC00242046C1E72DE9F047044689466B
:101AD00015464FF0000A2078022804D00120287013
:101AE0002046BDE8F087CF48007818B10F20287055
:101AF0002046F6E707F0F8FB8246A07A10B14FF0D7
:101B0000010801E04FF00008B9F1000F03D0B9F16E
:101B1000010F49D121E0B8F1000F17D1C4A06061D5
:101B20006668C24800683060C048066000202070C7
:101B3000BD480068606000202081BB4804605046BA
:101B400007F0D6FB00202870002705E0504607F07C
:101B5000CFFB4920287027462DE005E00023042212
:101B600019462046FFF704F9A07A0028F6D1B0A064
:101B700060616668AD4800683060AC48066000206F
:101B80002070A9480068606000202081A648046099
:101B9000504607F0ADFBB8F1010F01D1FEF73FFC55
:101BA00000202870002706E0504607F0A1FB072020
:101BB0002870274600BF00BF384692E770B505463B
:101BC000002607F091FB06466C686068E06060687C
:101BD00020610020E082304607F08AFB002070BDC3
:101BE0002DE9F0470746884615464FF0000938783A
:101BF000022804D0012028700020BDE8F087894821
:101C0000007818B1022028700020F6E78948007893
:101C100018B10D2028700020EFE707F065FB814622
:101C20007C68E08A98B12169081D20610E68E08A0D
:101C3000401EE082A1682069884201D1606820616D
:101C4000484607F055FB002028703046D5E77A4813
:101C5000006890F8340040F004007749096881F882
:101C6000340000207449096881F835007248006822
:101C7000C0F830803846FFF7BBF8484607F038FB1D
:101C8000FEF7CDFB07F030FB81466B48006890F80B
:101C9000350020B101280DD002280AD105E06648A0
:101CA0000068466A002028700DE000260E2028708B
:101CB00009E000BF394660480068FFF744F8002695
:101CC0000A20287000BF00BF00205B49096881F826
:101CD00034005949096881F8350057490968C861D5
:101CE000554909680862544909684862484607F03E
:101CF000FFFA304681E72DE9F04104460F461546CC
:101D00004FF000082078022804D00120287000201D
:101D1000BDE8F08107F0E8FA8046A07A20B30026FB
:101D20007FB1012F0CD107E00223042200212046BD
:101D3000FFF71EF8701CC6B2A07A0028F4D109E0A3
:101D400000BF0223042200212046FFF711F8701C77
:101D5000C6B200BF00BF404607F0CAFAFEF75FFBFD
:101D60000E2028703046D3E7404607F0C1FA002025
:101D7000287000BFCCE72DE9F04105460E4600274C
:101D80002878022802D00120BDE8F08107F0ACFAE3
:101D90000746A87A60B10023042231462846FEF7A0
:101DA000E7FF384607F0A4FAFEF739FB0020EBE71F
:101DB0006C68E08AA18A884204DB384607F098FA0A
:101DC0001E20E1E7E168081DE0600E60E08A401C2B
:101DD000E082D4E90210884201D16068E0603846B0
:101DE00007F086FA0020CFE72DE9F04105460E46C0
:101DF00000272878022802D00120BDE8F08107F0F2
:101E000073FA0746A87AC8B100230422314628464F
:101E1000FEF7AEFF384607F06BFAFEF700FB002036
:101E2000EBE700001900001004000010440000104F
:101E30003F0000001A0000102C0000106C68E08ABF
:101E4000A18A884204DB384607F052FA1E20D4E704
:101E500061682069884201D1A06820612069001F63
:101E6000206120690660E08A401CE082384607F065
:101E70003FFA0020C1E72DE9F04105460F4616461E
:101E80004FF000082878022802D00120BDE8F08138
:101E900007F02AFA8046A87AE8B106F0010050B1AE
:101EA00005E00023042239462846FEF761FFA87AA0
:101EB0000028F6D105E00023042239462846FEF723
:101EC00057FF404607F014FA06F0040008B9FEF781
:101ED000A6FA0020DAE76C68E08AA18A884204DB6F
:101EE000404607F005FA1E20D0E706F0020058B180
:101EF00061682069884201D1A06820612069001FC3
:101F000020612069076009E0E168081DE0600F605A
:101F1000D4E90210884201D16068E060E08A401C88
:101F2000E082404607F0E4F90020AFE72DE9F047F2
:101F300005460C464FF0000A2878022802D00120FE
:101F4000BDE8F08707F0D0F98246A87A207405F141
:101F50000B0804F10809002705E018F8010B09F83F
:101F6000010B781CC7B2082FF7D36E68F08A18B13E
:101F700030690068206001E000202060F08AA080C5
:101F8000B08AE080504607F0B3F90020D8E72DE989
:101F9000F04160211048FEF7B0FC00240DE0601C09
:101FA00086B204EB44000C4901EBC00506EB460089
:101FB00001EBC0072F60601C84B2032CEFD304EB4D
:101FC0004400054901EBC00500202860084603498C
:101FD0000860BDE8F0810000C00F00104400001050
:101FE00070B5044600262078032801D0002070BD7B
:101FF00007F07AF90646258915B12089401E20810F
:10200000304607F075F92846F1E770B50546002619
:10201000D748007808B1002070BD07F065F9064682
:10202000D4480468006820B1D24800684068D149AB
:102030000860304607F05CF94CB103202070258120
:1020400000206060CCA060612046FEF709FF2046BA
:10205000E2E72DE9F0470446884615464FF00009AF
:102060002078032804D0012028702046BDE8F0879E
:10207000BF48007818B10F2028702046F6E707F017
:1020800033F98146A07A08B1012700E00027B8F1B2
:10209000000F03D0B8F1010F3AD119E08FB9B6A003
:1020A000606100202070B3480068606000202081DB
:1020B000B0480460484607F01BF90020287000264D
:1020C00005E0484607F014F949202870264626E026
:1020D00005E00023012219462046FEF749FEA07ABA
:1020E0000028F6D1A4A0606100202070A1480068FB
:1020F0006060002020819F480460484607F0F8F89F
:10210000012F01D1FEF78BF900202870002606E090
:10211000484607F0EDF807202870264600BF00BFAC
:102120003046A3E72DE9F04105460E461446002748
:102130002878032803D001202070BDE8F0818C4866
:10214000007810B102202070F7E78C48007810B1B9
:102150000D202070F1E707F0C7F80746288940B145
:102160002889401E2881384607F0C2F800202070D8
:10217000E3E78348006890F8340040F001008049AC
:10218000096881F8340000207D49096881F835002C
:102190007B48006806632846FEF72AFE384607F0AB
:1021A000A7F8FEF73CF907F09FF807467448006867
:1021B00090F8350020B1012809D0022806D102E0AC
:1021C000002020700BE00E20207008E000BF2946A0
:1021D0006B480068FEF7B7FD0A20207000BF00BF03
:1021E00000206749096881F834006549096881F869
:1021F000350063490968C861614909680862384661
:1022000007F076F800BF98E72DE9F04104460F4645
:1022100015464FF000082078032804D001202870CC
:102220000020BDE8F08107F05FF88046A07A20B377
:1022300000267FB1012F0CD107E0022301220021EB
:102240002046FEF795FD701CC6B2A07A0028F4D196
:1022500009E000BF0223012200212046FEF788FD8D
:10226000701CC6B200BF00BF404607F041F8FEF741
:10227000D6F80E2028703046D3E7404607F038F8ED
:102280000020287000BFCCE770B5044600252078F8
:10229000032801D0012070BD07F026F80546A07A7A
:1022A00060B10023012219462046FEF761FD284651
:1022B00007F01EF8FEF7B3F80020ECE720894FF690
:1022C000FF71884207D22089401C2081284607F0F0
:1022D0000FF80020DFE7284607F00AF83320DAE796
:1022E0002DE9F04704460D464FF0000920780328F9
:1022F00002D00120BDE8F08706F0F6FF8146A07A03
:10230000A87204F10B0705F10208002605E017F892
:10231000010B08F8010B701CC6B2082EF7D32089F8
:102320002880484606F0E4FF0020E3E72DE9F0416D
:1023300004460E46154600272078032803D00120C6
:102340002870BDE8F08106F0CFFF07460020287016
:10235000208908B1268105E0A07A08B9268101E02C
:1023600049202870384606F0C3FF00BFE9E70000A7
:1023700019000010040000103F0000001A000010B7
:102380002C0000102DE9F34F85B088460020019005
:1023900006F0AAFF0190FE4850F8280030B10198DD
:1023A00006F0A6FF282007B0BDE8F08F0598FF28AB
:1023B00004D1F848006890F836000590F449059873
:1023C00051F8205025B9019806F092FF2920EAE73C
:1023D000012D04D1019806F08BFF4320E3E74FEA7B
:1023E000E80708F0070003900120B84000F0FF095B
:1023F00001210398814001F0FF0A0021E44A059879
:1024000042F82010104640F8285095F8386095F8AA
:102410003A00029095F839B0DF48805D00EA0B0081
:10242000D0B1DD48805D20EA0B00DB4988550846C5
:10243000805D28B9D948007802998843D749087047
:10244000D648007840EA0900D4490870D248C05DF7
:1024500040EA0A00D049C855EC69D4B104F10B0038
:10246000805D20EA0B0004F10B0188550846805D71
:1024700018B9A07A02998843A072A07A40EA0900AC
:10248000A07204F10B00C05D40EA0A0004F10B01E8
:10249000C855286A30B3286A0490049804681FE07D
:1024A00004F10B00805D20EA0B0004F10B0188555C
:1024B0000846805D18B9A07A02998843A072A07A74
:1024C00040EA0900A07204F10B00C05D40EA0A0076
:1024D00004F10B01C8550498001D04900498046889
:1024E000002CDDD185F8368085F83870039885F8A2
:1024F000370085F83A9085F839A0019806F0F8FE83
:10250000A7480078012801D1FDF789FF00204AE79C
:102510002DE9FE4F06460F4690461C464FF0000937
:1025200006F0E2FE81469F48007828B1484606F052
:10253000DFFE3C20BDE8FE8F954850F8240060BBCC
:102540000120934941F82400484606F0D1FE0023BB
:1025500042463946304601F011F88246002000908C
:10256000019003460246514602902046FEF790FC39
:10257000054635B98A48007801280CD1FDF74FFF90
:1025800009E006F0B1FE81460020814941F82400AF
:10259000484606F0ADFE2846CCE7484606F0A8FEC1
:1025A0002820C7E702F0010343B102F002032BB178
:1025B00002E0491E002308C00029FAD170472DE926
:1025C000F04F85B081468A4693461C46DDE90F7878
:1025D000129D0020039006F087FE0390714800785A
:1025E00030B1039806F084FE3C2005B0BDE8F08FC2
:1025F000674850F8240088BB0120654941F8240051
:10260000039806F075FE2A4641463846FFF7CAFF92
:102610002B465A465146484600F0B0FF04901198A8
:10262000CDE9008002953A4620460E9B0499FEF7BC
:102630002FFC064636B95A48007801280CD1FDF720
:10264000EEFE09E006F050FE03900020504941F8EC
:102650002400039806F04CFE3046C6E7FFE70398D7
:1026600006F046FE2820C0E72DE9F0410546002788
:102670004C48007810B14020BDE8F0813F2D01D1D9
:102680003E20F9E706F030FE0746FF2D03D1414812
:10269000006890F836503E4850F8254024B9384636
:1026A00006F026FE4320E7E7012C04D1384606F069
:1026B0001FFE3D20E0E714F8380F3749085C6178C9
:1026C00088432178344A505414F838091146085C7C
:1026D00030B994F83A103148007888432F4908708F
:1026E000E06918B12046E169FEF72DFB206A18B1B8
:1026F0002046216AFDF769FEA66A16B13046FEF74C
:1027000020FD0020206384F8340084F8350026483A
:102710000078FF2804D224480078401C2249087021
:10272000384606F0E5FDFEF70DFB06F0DDFD074639
:102730001D48007820B11C480078401E1A490870D6
:10274000204600F007FF19480078401E174908701E
:1027500000200F4941F82500A06930B900206169C7
:10276000886113496069086005E0D4E905014861A2
:10277000D4E9051088610F48006860610D48046065
:102780000DA02065384606F0B3FD0548007815E039
:10279000B80600102C0000101E0000101D000010D4
:1027A00026000010190000101A0000102700001069
:1027B00038000010300000103F000000012801D157
:1027C000FDF72DFE002057E72DE9F04104460027D4
:1027D0003F2C02D13E20BDE8F081FF2C0BD106F04A
:1027E00083FD0746EB48006890F83B60384606F0EA
:1027F0007FFD3046EFE706F077FD0746E64850F8E4
:10280000245025B9384606F073FD4320E3E7012D37
:1028100004D1384606F06CFD3D20DCE73F2085F80A
:102820003B00384606F064FD0020D4E72DE9F04770
:1028300006460F4614464FF00008D848007820B1ED
:10284000112020700020BDE8F08706F04DFD804685
:10285000FF2E03D1CF48006890F83660CE4850F87C
:10286000265035B9404606F043FD43202070002035
:10287000E9E7012D06D1404606F03AFD43202070DD
:102880000020E0E7286D38603868FDF739FD8146A3
:10289000404606F02DFD002020704846D3E72DE984
:1028A000F04106460F4614464FF00008BB4800783A
:1028B00018B112202070BDE8F08106F015FD8046A9
:1028C000FF2E03D1B348006890F83660B24850F844
:1028D00026502DB9404606F00BFD43202070EAE754
:1028E000012D05D1404606F003FD43202070E2E7AC
:1028F0002F65404606F0FCFC0020207000BFDAE7A0
:1029000070B50546002606F0EFFC0646A24850F8D2
:10291000254024B9304606F0EBFC462070BD012C62
:1029200004D1304606F0E4FC4320F7E794F8340085
:1029300000F0080060B314F8340F00F0F7002070C6
:1029400014F83409F8B9206BC8B93834A078944920
:10295000097808439249087020789249085C6178A8
:10296000084314F838198F4A5054304606F0C0FC1A
:102970008D480078012809D1FDF751FD06E0304669
:1029800006F0B6FC02E0304606F0B2FC0020C5E7D7
:10299000304606F0ADFC4420C0E72DE9F04707467D
:1029A0000D464FF0000A00202860686006F09CFC8D
:1029B0008246FF2F03D17748006890F8367076483A
:1029C00050F827402CB9504606F092FC4320BDE851
:1029D000F087012C04D1504606F08AFC4320F6E72C
:1029E000207C00F0010020B9504606F081FC452013
:1029F000EDE70026D4F80C90D4F80880504606F095
:102A000077FC00E0761C58F8041B0029FAD0B000CF
:102A10002860A9EB0600800068600020D7E72DE958
:102A2000F04105464FF0000806F05EFC8046FF2DA1
:102A300005D15848006890F83650012608E05548FE
:102A4000006890F83600A84201D1012600E0002677
:102A5000514850F825402CB9404606F049FC482022
:102A6000BDE8F081012C04D1404606F041FC432032
:102A7000F6E794F838704B48C05D94F839108843F5
:102A80004849C8550846C05D30B994F83A104448E2
:102A9000007888434249087094F8340040F00800F8
:102AA00084F83400404606F023FC012E01D1FDF7E6
:102AB000B6FC0020D4E72DE9F04105460E4600277C
:102AC00006F012FC0746FF2D03D13248006890F84B
:102AD0003650314850F825402CB9384606F008FCED
:102AE0002920BDE8F081012C04D1384606F000FC15
:102AF0004320F6E7582221463046FEF7BFF9384614
:102B000006F0F6FB0020ECE72DE9F04704460E4600
:102B100017464FF0000906F0E7FB8146FF2C02D173
:102B20001C48056802E01C4850F8245005F1540088
:102B300050F82680484606F0DBFB002038704046FF
:102B4000BDE8F0872DE9F04704460E461746984643
:102B50004FF0000906F0C8FB8146FF2C02D10D485A
:102B6000056802E00C4850F8245005F1540040F884
:102B70002670484606F0BCFB002088F80000BDE83F
:102B8000F08710B50348006800F0EEFCFF20FFF767
:102B90006BFD10BD2C000010B806001019000010CD
:102BA0001D0000101E0000102600001070B5054624
:102BB00000266348007800B170BD6248007800B11B
:102BC000FAE71DB306F090FB06465F48006890F8F0
:102BD00038405E48005D5C49096891F839108843C7
:102BE0005A4908550846005D40B95748006890F8B2
:102BF0003A10574800788843554908705248006891
:102C00000563304606F074FBFDF709FC00BFD3E70F
:102C10002DE9F04104460D4616461F464848007807
:102C200010B15520BDE8F0814648007808B1322047
:102C3000F8E7781D642148434FF47A71B0FBF1F155
:102C40004FF461606043C5EB051200EB8200304435
:102C500000EBC00202EB001001EB80084046FFF7DA
:102C6000A5FF0020DEE770B5054600263F2D01D305
:102C70002A2070BD06F038FB0646364850F825403D
:102C800024B9304606F034FB4320F2E7012C04D18E
:102C9000304606F02DFB4320EBE7206B20B9304691
:102CA00006F026FB5020E4E70020206394F834006F
:102CB00000F0370040B114F8340F20F037002070D6
:102CC00001206070343C02E0002084F8350094F864
:102CD000340000F00800A8B93834A0781C490978FD
:102CE00008431B49087020781849085C617808433C
:102CF00014F83819154A5054304606F0F9FAFDF721
:102D00008EFB02E0304606F0F3FA0020B1E770B522
:102D1000002506F0E9FA05460F480468284606F043
:102D2000E7FA204670BD70B50446002506F0DCFACF
:102D3000054609480460284606F0DAFA70BD00002E
:102D4000190000101A0000102C0000101E000010C6
:102D50001D000010B806001048000010FC48006874
:102D600008B900207047FA480168F94AC86810603D
:102D70000020C8600861F7480088401CF54A1080B0
:102D8000F5480088401EF44A10800846EAE72DE91D
:102D9000F05F06460F4690469946DDE90AAB0C9D6A
:102DA000EE48007820B18B2028700020BDE8F09F0D
:102DB000FDF798FEFFF7D2FF04462CB9FDF7ABFEF6
:102DC000862028700020F1E7012084F82500A66104
:102DD000E76184F82480C4F80490C4F808A0C4F81B
:102DE00020B0FDF798FE002028702046DEE7002185
:102DF00080F8251080F82410C16141614160816034
:102E0000D7A1016200210161D1490968C160D0499F
:102E10000860D0490988491ECE4A1180CE490988E8
:102E2000491CCD4A1180704730B5057D05F0070477
:102E3000CC4D05EBC4031D68854205D1C1681960FE
:102E400039B100250D6104E00169C268CA6002B1B0
:102E50001161012580F825500025C56005619D8818
:102E60006D1E9D8030BD70B505460C4628786428DF
:102E700003D089202070002070BDB848007818B1B8
:102E80008B2020700020F7E7FDF72CFE95F8250039
:102E9000D8B101280FD002280ED003281BD1284614
:102EA000FFF7C2FF2846FFF7A2FFFDF734FE002020
:102EB00020700120E0E700BF2846FFF798FFFDF7EC
:102EC0002AFE002020700120D6E7FDF724FE87208F
:102ED00020700020D0E7FDF71EFE8D20207000201E
:102EE000CAE72DE9F04105460E46144628786428C5
:102EF00004D0892020700020BDE8F0819748007838
:102F000018B1112020700020F6E7FDF7EBFD95F8D1
:102F1000250098B1012804D0022803D0032813D13A
:102F200000BF00BF286A30603068FDF7E9F9074646
:102F3000FDF7F1FD002020703846DDE7FDF7EBFDE1
:102F4000872020700020D7E7FDF7E5FD8D20207059
:102F50000020D1E770B504460D462078642803D0E0
:102F600089202870002070BD7C48007818B18B2023
:102F700028700020F7E7FDF7B5FD94F8250070B341
:102F800001280DD0022825D003282FD17649606969
:102F90000968461AFDF7BFFD002028703046E2E7B9
:102FA00094F8240001280CD0022809D1A06908B99E
:102FB000E66900E0A669FDF7AEFD0020287006E096
:102FC00000BFA669FDF7A7FD0020287000BF00BF65
:102FD0003046C8E7FDF79FFD00202870C3E7FFE7F4
:102FE000FDF799FD872028700020BCE7FDF793FDD1
:102FF0008D2028700020B6E770B505460C4628786D
:10300000642803D089202070002070BD53480078C8
:1030100018B18B2020700020F7E7FDF763FD95F8CD
:10302000256036B1012E05D0022E04D0032E06D124
:1030300002E000BF00BF00BF0020207002E08D2032
:10304000207000BF00BFFDF766FD3046DDE770B5BC
:103050000B46032580F82550012B05D1424EC5694A
:103060003668354445610CE085692DB93E4EC56929
:1030700036683544456104E03B4E85693668354421
:103080004561057D05F00704364D05EBC4010D686B
:103090002DB908600025C56001258D8006E00A680D
:1030A0000860C26010618D886D1C8D8000250561EF
:1030B00070BD70B505460C462878642803D0892079
:1030C0002070002070BD2548007818B18B2020703A
:1030D0000020F7E7FDF706FD95F82500E8B1012887
:1030E00010D002280FD003281DD12846FFF79CFEE0
:1030F00000212846FFF7ABFFFDF70DFD00202070F3
:103100000120DFE700BF00212846FFF7A0FFFDF701
:1031100002FD002020700120D4E7FDF7FCFC872091
:1031200020700020CEE7FDF7F6FC8D2020700020F7
:10313000C8E72DE9F04105460F4690461C46287821
:10314000642813D0892020700020BDE8F0810000A1
:103150005C0000104E0000104C0000101900001020
:103160003F000000A0140010500000107D480078BF
:1031700018B18B2020700020E7E7FDF7B3FC95F82D
:103180002500002832D001282AD0022827D0032881
:1031900032D12846FFF748FE00202070B7B1032F38
:1031A00002D0042F13D108E06E681EB12846A9682A
:1031B000B04701E08F2020700CE06E681EB14146E0
:1031C0002846B04701E08F20207003E002E0842011
:1031D000207000BF00BFFDF79EFC0120B5E700BFD7
:1031E000FDF799FC8E2020700120AEE7FDF793FCDF
:1031F000872020700020A8E7FDF78DFC8D2020702F
:103200000020A2E710B558480068FFF73DF80446D3
:10321000204610BD08B500BF00BF6A4600215248D5
:103220000068FEF77FFFFDF75DFC50480068401C1A
:103230004E4908600846007800F007084C4800EB4B
:10324000C8073C681AE0E66848496069096888422E
:1032500013D12046FFF7E8FD94F82400022804D19A
:1032600001212046FFF7F3FE02E0022084F825004A
:10327000656815B12046A168A8473446002CE2D104
:10328000FDF749FCC9E700B587B003200021802283
:10329000384BCDE90132CDE903104FF6FD703D23E7
:1032A000354A00903548FFF78AF906AA34A13D2037
:1032B000FFF7F5FA07B000BDF8B54FF420713448B8
:1032C000FDF71BFB40212A48FDF717FB002515E001
:1032D000681C86B205EB85002D4901EBC00406EBA6
:1032E000860001EBC00764202070002084F82500D0
:1032F000E760AFF294102062681C85B20F2DE7D30F
:1033000005EB8500224901EBC004642020700020F9
:1033100084F82500E060AFF2B81020620020134965
:1033200008601C49088010201B49088018481B4968
:1033300008600120FEF769FE194908600020FEF7C9
:1033400064FE094908606A4616A115480068FDF741
:1033500012F86A4618A104480068FDF70CF8FFF758
:1033600092FFF8BD19000010580000105000001026
:10337000A0140010A01200109C14001015320000C0
:1033800075432F4F532D494920546D7200000000A2
:10339000201000104E0000104C0000105C000010C7
:1033A0005400001075432F4F532D494920546D721E
:1033B0004C6F636B0000000075432F4F532D49493C
:1033C00020546D725369676E616C00001D481E4881
:1033D0001E481F481F4820482048214821482248AD
:1033E000224823482348244824482548254826487D
:1033F00026482748274828482848294829482A484D
:103400002A482B482B482C482C482D482D482E481C
:103410002E482F482F4830483048314831483248EC
:1034200032483348334834483448354835483648BC
:10343000364837483748384838483948394800BF4F
:1034400070470000B4960000B8960000BE960000D9
:10345000C0960000BC960000C2960000C496000012
:10346000C6960000C8960000CA960000CC960000E0
:10347000CE960000D0960000D2960000D4960000B0
:10348000D6960000D8960000DA960000DC96000080
:10349000DE960000E0960000E2960000E496000050
:1034A000E6960000E8960000EA960000EC96000020
:1034B000EE960000F0960000F2960000F4960000F0
:1034C000F6960000F8960000FA960000FC960000C0
:1034D000FE9600000097000002970000049700008D
:1034E00006970000089700000A9700000C9700005C
:1034F0000E97000020100010A0140010129700007A
:103500001497000016970000189700001A97000003
:103510001C9700001E9700002097000022970000D3
:1035200010970000249700005C48802102E0491EAB
:10353000002204C00029FAD1594A5A4B1A600022CD
:10354000594B1A807047704710B504462046FCF767
:1035500089FE10BD10B504462046FCF784FE10BD60
:1035600010B5FCF781FE10BD10B504462046FCF7EF
:1035700080FE10BD10B5FCF778FE10BD70B5044696
:1035800010464FF080750560051F28462C60474E99
:10359000051F28462E604FF01236051F28462E6064
:1035A0004FF00336051F28462E604FF00236051FE8
:1035B00028462E607610051F28462E60051F2846D7
:1035C00029604FF01136051F28462E604FF0103647
:1035D000051F28462E604FF00936051F28462E602D
:1035E0004FF00836051F28462E604FF00736051F9E
:1035F00028462E604FF00636051F28462E604FF0F5
:103600000536051F28462E604FF00436051F284654
:103610002E6070BD10B5FCF729FE10BD10B5044634
:103620002046FCF724FE10BD10B5FCF721FE1E4815
:103630000088401C1C490880084600880A2803D3DB
:1036400000200880FFF7DEFD10BD10B503F02BFC55
:1036500005F04AFE044616480078401C14490870DC
:10366000204605F045FEFDF701FBFDF703FA10BD0E
:10367000411E4FF0E0225161FF210E4A11704FF0C0
:10368000E021096941F005014FF0E0221161114686
:10369000096941F00201116170470000E014001057
:1036A000DC16001000C0072004C00720832B000098
:1036B0001900001023ED00E09A480068C0F3016093
:1036C00003285DD197488430006800F0030030B1D2
:1036D000012820D0022839D0032850D100E000BFB3
:1036E00090480068C0F30E00401C40008E494843DB
:1036F0008C498839D1F88810C1F30741491CB0FBC7
:10370000F1F188487C300068C0B2401CB1FBF0F099
:103710008649086033E083480068C0F30E00401C0F
:103720004000834948437F498839D1F88810C1F364
:103730000741491CB0FBF1F17A487C300068C0B207
:10374000401CB1FBF0F07949086018E0754800684A
:10375000C0F30E00401C010472488838D0F888007D
:10376000C0F30740401CB1FBF0F16E487C300068AC
:10377000C0B2401CB1FBF0F06C49086000BF30E003
:1037800068488430006800F0030030B1012810D090
:10379000022819D0032823D100E000BF61487C3003
:1037A0000068C0B2401C6049B1FBF0F05F4908609E
:1037B00016E05C487C300068C0B2401C5C49B1FB3C
:1037C000F0F05A4908600BE056487C300068C0B2FF
:1037D000401C4FF40041B1FBF0F05449086000BFB9
:1037E00000BF70474FF0407001142022514B1A6007
:1037F0004C4A883AD2F8A02102F0200232B100BF30
:103800004C4A126802F04002002AF9D00322454BCC
:103810007C331A600022434B883BC3F8A821454BF8
:103820000C331A6001223F4B84331A60424A3D4BED
:103830001B1F1A60AA223B4B1B1D1A6055221A60DF
:103840000122384B083B1A60AA22364B1B1D1A6016
:103850005522344B883BC3F88C2000BF314A126894
:1038600002F08062002AF9D003222E4B083B1A6036
:10387000AA222C4B883BC3F88C205522294B1B1DB8
:103880001A6000BF274A126802F04072B2F1407F0E
:10389000F8D12322234B1C331A60AA22214B883BE8
:1038A000C3F8AC2055221F4B24331A6001221D4B54
:1038B00018331A60AA221B4B24331A605522194B65
:1038C000883BC3F8AC2000BF164A2032126802F4CD
:1038D0008062002AF8D00322124B18331A60AA2201
:1038E000104B883BC3F8AC2055220E4B24331A6092
:1038F00000BF0C4A2032126802F44072B2F5407FD9
:10390000F7D10E4A074B3C331A600022054B883B27
:10391000C3F8C82143F23A021A600022084B1A6029
:103920007047000088C00F4000093D006000001093
:10393000001BB700A0C10F4063000500DE8728040C
:1039400008ED00E013B5044601231A4601A92046FC
:1039500000F0C6FF1CBD38B50446002000900123CE
:103960001A466946204601F007F89DF8000038BD68
:1039700070B506460D462C4604E014F8011B30468F
:10398000FFF7E0FF20780028F7D170BD70B504463E
:103990000D4629462046FFF7EBFFFEA12046FFF724
:1039A000E7FF70BD2DE9F04105460C460A2094FB67
:1039B000F0F100FB1140C6B20A2094FBF0F00A219E
:1039C00090FBF1F201FB1200C7B2642094FBF0F00F
:1039D00090FBF1F201FB120000F0FF0808F130004B
:1039E000C1B22846FFF7AEFF07F13000C1B228464A
:1039F000FFF7A8FF06F13000C1B22846FFF7A2FF8B
:103A0000BDE8F0812DE9F04705460C460A2094FBFD
:103A1000F0F100FB1140C6B20A2094FBF0F00A213D
:103A200090FBF1F201FB1200C7B2642094FBF0F0AE
:103A300090FBF1F201FB120000F0FF084FF47A70E6
:103A400094FBF0F090FBF1F201FB120000F0FF0993
:103A500042F2107094FBF0F090FBF1F201FB1200C7
:103A600000F0FF0A0AF13000C1B22846FFF76AFFF2
:103A700009F13000C1B22846FFF764FF08F13000B9
:103A8000C1B22846FFF75EFF07F13000C1B22846F9
:103A9000FFF758FF06F13000C1B22846FFF752FF8A
:103AA000BDE8F0872DE9F34F83B00C460A20B4FB44
:103AB000F0F100FB1145B4FBF0F00A21B0FBF1F28C
:103AC00001FB12066420B4FBF0F0B0FBF1F201FB45
:103AD00012074FF47A70B4FBF0F0B0FBF1F201FB87
:103AE000120842F21070B4FBF0F0B0FBF1F201FBEF
:103AF0001209A948B4FBF0F0B0FBF1F201FB120A85
:103B0000A648B4FBF0F0B0FBF1F201FB120BA448A5
:103B1000B4FBF0F0B0FBF1F201FB12000290A148FF
:103B2000B4FBF0F0B0FBF1F201FB120001909E48F3
:103B3000B4FBF0F0B0FBF1F201FB12000090009832
:103B40003030C1B20398FFF7FDFE01983030C1B2AA
:103B50000398FFF7F7FE02983030C1B20398FFF7E1
:103B6000F1FE0BF13000C1B20398FFF7EBFE0AF152
:103B70003000C1B20398FFF7E5FE09F13000C1B291
:103B80000398FFF7DFFE08F13000C1B20398FFF79A
:103B9000D9FE07F13000C1B20398FFF7D3FE06F15A
:103BA0003000C1B20398FFF7CDFE05F13000C1B27D
:103BB0000398FFF7C7FE05B0BDE8F08F2DE9F0418F
:103BC00007460D4679A13846FFF7D2FE012600BF11
:103BD000B00045FA00F000F00F04092C02DD04F1FA
:103BE000370001E004F13000C1B23846FFF7AAFE09
:103BF000301EA6F10101CEB2EAD1BDE8F0812DE977
:103C0000F04107460D4669A13846FFF7B1FE03268D
:103C100000BFB00045FA00F000F00F04092C02DDEF
:103C200004F1370001E004F13000C1B23846FFF77B
:103C300089FE301EA6F10101CEB2EAD1BDE8F081C5
:103C40002DE9F04107460D4658A13846FFF790FE92
:103C5000072600BFB00025FA00F000F00F04092C81
:103C600002DD04F1370001E004F13000C1B2384652
:103C7000FFF768FE301EA6F10101CEB2EAD1BDE821
:103C8000F0810FB410B5C2B0449803F0D3FF44984C
:103C900003F0D0FFC82803D942B010BC5DF814FB74
:103CA00045A8419001A8419A449903F0B1FF002032
:103CB000419001A803F0BEFF0446214601A802F08E
:103CC000AFFD00BFE8E70FB410B5C2B0449803F0F1
:103CD000B1FF449803F0AEFFC82803D942B010BC2E
:103CE0005DF814FB45A8419001A8419A449903F05E
:103CF0008FFF0020419001A803F09CFF044621465D
:103D000001A802F0EFFB00BFE8E71FB501208DF826
:103D1000020000208DF804008DF8030002208DF8C9
:103D2000010000208DF80000684600F057FA0320DB
:103D30008DF80100684600F051FA02A800F08EFDEF
:103D40004FF4E130029002A9194800F003FC012170
:103D5000174800F0F4FCAFF2E73016490860AFF204
:103D6000D33015490860AFF2234014490860AFF220
:103D7000B31013490860AFF2791012490860AFF22E
:103D80003F1011490860AFF2E33010490860AFF20C
:103D90008B301DE00A0D0000A086010040420F009C
:103DA0008096980000E1F50500CA9A3B3078000043
:103DB00000C0004064000010680000106C0000109B
:103DC0007C000010800000108400001070000010C3
:103DD00005490860AFF2333004490860AFF289400A
:103DE000034908601FBD0000740000107800001037
:103DF0008800001010B50A46202801D2034601E0D1
:103E0000A0F120031946202810D2454B1B6803243B
:103E10008C40A343434CC4F8A831414B1B6802FAC1
:103E200001F423433F4CC4F8A83111E03C4B1B1D67
:103E30001B6803248C40A3433A4CC4F8AC31384B84
:103E40001B1D1B6802FA01F42343364CC4F8AC3145
:103E500010BD0146202903D20A46314B186804E000
:103E6000A1F120022E4B1B1D186820FA02F303F06B
:103E70000300704770B506462B4804683046FFF7CC
:103E8000E8FF054635B1012D06D0022D06D0032DE1
:103E900008D105E0042505E0012503E0022501E045
:103EA000082500BF00BFB4FBF5F4204670BD012912
:103EB00009D11C4AC43212681C4B03401A43194BE7
:103EC000C3F8C42009E041B9164AC4321268174B3E
:103ED00083431A40134BC3F8C42070470020114994
:103EE000C031086030BF70470420114908600020CD
:103EF0000C49C031086030BF704704200C4908608D
:103F000001200849C031086030BF704704200849CB
:103F1000086003200349C031086030BF70470000CB
:103F2000A8C10F4000C00F4060000010DEF7EFEFA7
:103F300010ED00E00146080B102802D30E2202EB20
:103F4000D000704730B58BB004460D46322001904A
:103F50000294039506A901A8684A1268904706983A
:103F6000C0B20BB030BD2DE9F0418AB004460D4619
:103F700016462046FFF7DEFF804641464046FFF7E3
:103F8000E1FF07461FB138460AB0BDE8F081332093
:103F90000090019402950396594800684FF47A7195
:103FA000B0FBF1F1049105A96846544A12689047A4
:103FB0000598C0B2E8E770B58AB004460E463146AF
:103FC0002046FFF7BFFF054615B128460AB070BD71
:103FD0003420009001940296494800684FF47A71A9
:103FE000B0FBF1F1039105A96846444A1268904775
:103FF0000598C0B2EAE7F0B58BB006460F46144606
:104000001D46352001900296039706A901A83B4A58
:10401000126890470698082805D10CB107982060CF
:104020000DB1089828600698C0B20BB0F0BD10B56D
:104030008AB004463620009005A968462F4A1268C7
:104040009047059810B90CB1069820600598C0B249
:104050000AB010BD30B58BB004460D463720019034
:1040600006A901A8254A12689047069830B914B1EC
:104070000798000A20700DB1079828700698C0B202
:104080000BB030BD10B58AB004463A20009005A9A7
:1040900068461A4A12689047059860B95CB10020DA
:1040A00000BF05E006A951F8201044F82010401C7C
:1040B0000428F7D300BF0598C0B20AB010BD70B590
:1040C0008AB004460E4615463820009001940296A8
:1040D000039505A96846094A126890470598C0B239
:1040E0000AB070BD00B58BB03920019006A901A8B7
:1040F000024A126890470BB000BD00008C0000100F
:1041000060000010F0B504460B46154619466000E5
:104110003B4A102901D31039401C52F820604FEA65
:10412000410C032707FA0CF7BE4342F8206052F80F
:1041300020604F0005FA07F73E4342F82060F0BDCB
:10414000F0B504460B461546194660002C4A40322D
:10415000102901D31039401C52F820604FEA410C5D
:10416000032707FA0CF7BE4342F8206052F820609C
:104170004F0005FA07F73E4342F82060F0BD30B526
:104180000B461F496831012A07D151F8204001250B
:104190009D402C4341F8204006E051F82040012585
:1041A0009D40AC4341F8204030BD012806D1144960
:1041B000896A41F00801124A916206E028B9104963
:1041C000896A21F008010E4A91627047012800D1E6
:1041D000052201B90A220A4BDA67704710B5044676
:1041E000A27861782078FFF78DFFE27861782078F7
:1041F000FFF7A6FF227961782078FFF7C0FF10BD96
:1042000000C002402DE9F0410446554805680068A9
:104210004FF47A71B0FBF1F04FF08071B1FBF0F721
:10422000384605F005F90646204605F001F907462F
:10423000314605F08BF901D200BFFEE74FF0E020D8
:10424000006940F004004FF0E02108614FF47A70FB
:10425000B5FBF0F06043401E4861BDE8F0812DE9F8
:10426000F04104460D464FF47A70B4FBF0F04FF085
:104270008071B1FBF0F7384605F0DAF806462846BB
:1042800005F0D6F80746314605F060F901D200BFC7
:10429000FEE74FF0E020006920F004004FF0E0213D
:1042A00008614FF47A70B4FBF0F06843471E38465B
:1042B00005F0BEF806464FF47A70B4FBF0F06843A0
:1042C000401E4FF0E0214861BDE8F08110B5044682
:1042D0000CB1012C00D103E0862122A0FBF7E8FFFE
:1042E000012C08D14FF0E020006940F001004FF0B0
:1042F000E021086107E04FF0E020006920F00100B4
:104300004FF0E021086110BD10B504460CB1012C3E
:1043100000D103E0992113A0FBF7CAFF012C08D1BB
:104320004FF0E020006940F002004FF0E02108610A
:1043300007E04FF0E020006920F002004FF0E0219C
:10434000086110BD4FF0E020806970474FF0E02019
:10435000006920F480304FF0E021086170470000D0
:10436000600000104353425C736F757263655C6C50
:104370007063313778785F7379737469636B2E6318
:10438000000000002DE9F04F8BB004468946002064
:104390000990F748844204D10620FFF76BFD0746D9
:1043A00016E0F448844204D10820FFF763FD074675
:1043B0000EE0F148844204D13020FFF75BFD074650
:1043C00006E0EE48844203D13220FFF753FD074652
:1043D0004FF0FF3B00200790069000252E464FF03F
:1043E00001084DE00020089040E00898404400FBA0
:1043F00009FC0020010741EA171138070022A0FB41
:10440000083E01FB08E100FB02106246CDE90030E6
:104410000023DDE9000103F083FBCDE904010498EA
:104420000390DDF814A00398B0F1004F04D903986D
:10443000404203900AF1010ABAF1000F02D0BAF526
:10444000803F00D90FE0039858450BD2DDF80CB03F
:104450000026554608980790CDF81880BBF1000F4C
:1044600000D106E000BF0898401C0890089840451D
:10447000BBD300BFBBF1000F00D104E008F101087D
:10448000B8F10F0FAED900BF002185EA01007140DD
:10449000084302D10BB0BDE8F08F3809069900FB44
:1044A00001FC0846079908440021A0FB052301FBF5
:1044B000053100FB06100346CDE9002060460021CF
:1044C00003F02EFB02900298814503D90298A9EBD4
:1044D000000B02E00298A0EB090B64200BFB00F03C
:1044E000B0FBF9FBBBF1030F32D2A248844216D1D4
:1044F000207B40F080002073280A40EA066020718B
:104500002570207B00F07F002073F021069801EADF
:104510000010079901F00F010843A06216E0207B0C
:1045200040F080002073280A40EA06602071257060
:10453000207B00F07F002073F021069801EA001034
:10454000079901F00F01084384F828000120099021
:1045500009989FE770B504460D468548844208D007
:104560008448844205D08448844202D083488442EF
:1045700000D103E0CF2182A0FBF79AFE687940B119
:104580006879012805D06879022802D06879032863
:1045900000D103E0D0217AA0FBF78AFEA87910B100
:1045A000A879012800D103E0D12175A0FBF780FE96
:1045B000287958B12879012808D02879022805D00F
:1045C0002879032802D02879042800D103E0D221D9
:1045D0006BA0FBF76DFE6648844203D101210820E1
:1045E000FFF765FC6348844203D101211020FFF7E7
:1045F0005EFC6148844203D101210806FFF757FCA5
:104600005E48844203D101214806FFF750FC594817
:10461000844223D1072020720020207200E02678F7
:10462000207D00F001000028F9D1802084F83000BE
:1046300000BF207D00F020000028FAD0002084F880
:104640003000606020732062207484F84C0084F88D
:10465000540084F85000267E267D1AE00720207240
:104660000020207200E02678207D00F00100002864
:10467000F9D1802084F8300000BF207D00F02000B8
:104680000028FAD0002084F8300060602073206297
:10469000267D3A48844202D1002084F82400204636
:1046A0002968FFF76FFE3348844203D1207B00F076
:1046B000C00602E0207B00F0C006687930B1012816
:1046C00006D0022807D0032808D108E000BF09E07F
:1046D00046F0010606E046F0020603E000BF46F0A1
:1046E000030600BF00BF2879C0B146F0080628794C
:1046F000012806D0022806D0032807D004280BD1B1
:1047000007E000BF09E046F0100606E046F020068C
:1047100003E046F0300600E000BF00BFA87928B1F2
:10472000012802D146F0040601E000BF00BF00BF2F
:104730001048844201D1267300E0267370BD70B525
:1047400004460D460A48844208D00A48844205D0EF
:104750000948844202D00948844200D104E04FF461
:104760007C7107A0FBF7A4FD0DB1012D16D11BE054
:1047700000C00040000001400080094000C0094026
:104780004353425C736F757263655C6C7063313761
:1047900078785F756172742E6300000040F2F13129
:1047A000AFF22400FBF784FD012D10D1F9488442BB
:1047B00006D194F8300040F0800084F8300014E016
:1047C00094F8300040F0800084F830000DE0F148AB
:1047D000844205D194F83000002084F8300004E0D1
:1047E00094F83000002084F8300070BD10B5044605
:1047F000E948844208D0E748844205D0E74884422B
:1048000002D0E748844200D105E040F29B11AFF2AC
:104810009000FBF74DFD00212046FFF790FFDE489A
:10482000844203D100210820FFF741FBD94884428C
:1048300003D100211020FFF73AFBD848844204D16D
:1048400000214FF08070FFF732FBD548844204D13D
:1048500000214FF00070FFF72AFB10BD4FF41651F6
:10486000016003214171002101718171704770B5B0
:1048700004460D46C848844208D0C648844205D044
:10488000C648844202D0C648844200D105E040F2C6
:10489000DF11AFF21410FBF70BFDBE48844201D1CB
:1048A000257000E0257070BD10B50446BA488442FA
:1048B00008D0B848844205D0B848844202D0B848ED
:1048C000844200D105E04FF4FC71AFF24C10FBF7CD
:1048D000EFFCB048844201D1207810BD2078FCE77D
:1048E0002DE9FF5F80468A46934657465C4603980B
:1048F000012825D1002520E04FF0FF3905E0B9F16E
:10490000000F00D107E0A9F1010998F8140000F0A8
:1049100020000028F3D000BFB9F1000F00D10EE055
:10492000102607E017F8011B4046FFF7A0FF761E90
:10493000641E6D1C0EB1002CF4D1002CDCD117E0EC
:10494000002512E098F8140000F0200000B90EE0F5
:10495000102607E017F8011B4046FFF788FF641E8A
:10496000761E6D1C0EB1002CF4D1002CEAD100BFD4
:10497000284604B0BDE8F09F2DE9F05F0746894660
:1049800092469B464E465546BBF1010F1ED1002470
:1049900019E04FF0FF3805E0B8F1000F00D106E054
:1049A000A8F10108387D00F001000028F4D000BF14
:1049B000B8F1000F00D108E03846FFF775FF06F8A0
:1049C000010B6D1E641C002DE3D110E000240BE0F0
:1049D000387D00F0010000B908E03846FFF764FFB9
:1049E00006F8010B641C6D1E002DF1D100BF20469E
:1049F000BDE8F09F10B504466748844208D065487A
:104A0000844205D06548844202D06548844200D182
:104A100005E040F28A21AFF29820FBF749FC5D489F
:104A2000844204D1207B40F04000207303E0207BCF
:104A300040F04000207310BD2DE9F04104460D46C2
:104A400017465548844208D05248844205D05348FE
:104A5000844202D05248844200D105E040F2B121A4
:104A6000AFF2E420FBF724FC0FB1012F00D105E0E9
:104A700040F2B221AFF2F820FBF71AFC072D15D255
:104A8000DFE805F00406080A0C0E110001260DE00F
:104A900002260BE0042609E0082607E0802605E050
:104AA0004FF4807602E04FF4007600BF00BF394833
:104AB000844214D15DB1012D09D0022D07D0052DFE
:104AC00005D0062D03D0032D01D0042D00D116E012
:104AD00040F2CE21AFF25830FBF7EAFB0FE03DB1D8
:104AE000012D05D0022D03D0052D01D0062D00D1BA
:104AF00005E040F2D221AFF27830FBF7D9FB012F6D
:104B00000AD12448844203D160683043606013E0D6
:104B10006068304360600FE01E48844206D16068E0
:104B200040F28F31B1430840606005E0606840F2B8
:104B30000731B14308406060BDE8F08110B504461C
:104B40001548844208D01348844205D01348844253
:104B500002D01348844200D105E04FF44071AFF217
:104B6000E030FBF7A5FB0B48844201D1007D10BD6E
:104B7000207DFCE710B504460748844208D005486C
:104B8000844205D00548844202D00548844209D1B8
:104B90000EE000000000014000C00040008009401D
:104BA00000C0094040F21731AFF22C40FBF780FB08
:104BB000A06840F2CF31084010BD0146087D00F0EA
:104BC000400008B1002070470120FCE770B50646A0
:104BD0000C460025F748864208D0F748864205D0A3
:104BE000F648864202D0F648864200D105E040F2FF
:104BF0003D31AFF27440FBF75BFBE07840B1E07809
:104C0000012805D0E078022802D0E078032800D1FE
:104C100005E040F23E31AFF29840FBF749FBA07847
:104C200010B1A078012800D105E040F23F31AFF289
:104C3000B040FBF73DFB207810B12078012800D16F
:104C400005E04FF45071AFF2C840FBF731FB6078DC
:104C500010B16078012800D105E040F24131AFF297
:104C6000E040FBF725FB45F00105E07830B1012875
:104C700006D0022807D0032808D108E000BF09E0C9
:104C800045F0400506E045F0800503E000BF45F033
:104C9000C00500BF00BF6078012801D145F00405C0
:104CA0002078012801D145F00205A078012801D122
:104CB00045F00805C048864203D105F0CF003072A8
:104CC00002E005F0CF00307270BD00218170C1702C
:104CD00001210170417070472DE9F04104460F46F3
:104CE0001546B448844208D0B348844205D0B3483E
:104CF000844202D0B248844200D105E04FF466718C
:104D0000AFF28450FBF7D4FA0DB1012D00D105E0CC
:104D100040F29931AFF29850FBF7CAFA0026012D04
:104D200009D13878012801D146F0020678780128A7
:104D300001D146F00406A048844215D1012D10D1BE
:104D4000207B40F080002073002020702071207BA9
:104D500020F0800020731020A06246F00100206245
:104D600018E00020206215E0012D11D1207B40F0D9
:104D700080002073002020702071207B20F08000B4
:104D80002073102084F8280046F00100206201E022
:104D900000202062BDE8F08170B504460D468548CC
:104DA000844208D08448844205D08448844202D09A
:104DB0008348844200D105E040F2D931AFF240602F
:104DC000FBF776FA7C48844203D1206A28432062AC
:104DD00002E0206A2843206270BD70B504460D468B
:104DE0007748844200D105E040F21A41AFF270608A
:104DF000FBF75EFA0DB1012D00D105E040F21B4139
:104E0000AFF28460FBF754FA012D06D194F8240028
:104E100040F0020084F8240006E02DB994F8240044
:104E200000F03D0084F8240070BD70B504460D46C6
:104E30006348844200D105E040F23241AFF2C060E5
:104E4000FBF736FA0DB1012D00D105E040F23341F8
:104E5000AFF2D460FBF72CFA012D06D194F82400B0
:104E600040F0010084F8240005E094F8240000F0EC
:104E70003E0084F8240070BD2DE9F04105460C4643
:104E80004F48854200D105E040F25341AFF2107027
:104E9000FBF70EFA6CB1012C0BD0022C09D0032CBD
:104EA00007D0042C05D0052C03D0062C01D0072CEC
:104EB00000D105E040F25441AFF23C70FBF7F8F945
:104EC0006007870E95F8240020F0380647F00400AC
:104ED000064306F03F0085F82400BDE8F0812DE987
:104EE000F04104460D46164600273348844200D15F
:104EF00005E040F27341AFF27870FBF7D9F90DB1DC
:104F0000012D00D105E040F27441AFF28C70FBF747
:104F1000CFF90EB1012E00D105E040F27541AFF29C
:104F2000A070FBF7C5F915B1012D04D101E00127EF
:104F300002E0022700E000BF00BF012E03D1207C69
:104F40003843207404E0207CF321B94308402074E6
:104F5000BDE8F0812DE9F04104460D46174616489C
:104F6000844200D105E040F29B41AFF2EC70FBF7C8
:104F70009FF91DB1012D01D0022D00D105E040F2B5
:104F80009C41AFF60400FBF793F90FB1012F00D15C
:104F900005E040F29D41AFF61800FBF789F925B115
:104FA000012D04D0022D0FD10CE010260DE040267B
:104FB0000BE0000000C000400000014000800940FC
:104FC00000C00940802600E000BF00BF012F03D1D0
:104FD000207C3043207404E0207CF321B14308405E
:104FE0002074BDE8F08110B504467948844200D1B0
:104FF00005E040F2C641AFF67800FBF759F9207E94
:1050000010BD70B506460C467148864200D105E0D9
:1050100040F2DA41AFF69800FBF74AF9A07810B1F8
:10502000A078012800D105E040F2DB41AFF6B000E6
:10503000FBF73EF9E07810B1E078012800D105E0F7
:1050400040F2DC41AFF6C800FBF732F9E079FF2807
:1050500000DA05E040F2DD41AFF6DC00FBF728F9AD
:10506000607910B16079012800D105E040F2DE419D
:10507000AFF6F400FBF71CF9207910B12079012874
:1050800000D105E040F2DF41AFF60C10FBF710F95C
:10509000A079FF2800DA05E04FF49C61AFF62010FC
:1050A000FBF706F9207810B12078012800D105E03F
:1050B00040F2E141AFF63810FBF7FAF8607810B132
:1050C0006078012800D105E040F2E241AFF65010CF
:1050D000FBF7EEF80025E07801280ED145F0100529
:1050E0006079012801D145F020052079012801D1FE
:1050F00045F00805E07986F854002078012801D1B0
:1051000045F00105A078012804D145F00405A079F7
:1051100086F85000607808B945F0020505F03F00B8
:1051200086F84C00307B40F03800307370BD0129A8
:1051300006D190F84C2022F0020280F84C2005E0C5
:1051400090F84C2042F0020280F84C2070472DE984
:10515000F0470446894692461F46A7B1257BA846DC
:1051600028F0100884F80C80012352464946204656
:10517000FFF7B6FB064600BF207D00F04000002888
:10518000FAD025730CE00123524649462046FFF72A
:10519000A7FB064600BF207D00F040000028FAD0A3
:1051A0003046BDE8F08713B5044601231A4601A92D
:1051B0002046FFF7CCFF1CBD70B504460D461646D1
:1051C0000023324629462046FFF7C1FF70BD00008C
:1051D000000001402DE9F05F81460D4600260024C5
:1051E000B9F1000F06D0B9F1010F1AD0B9F1020FD1
:1051F0007ED169E0794EA6FB0570014604220023AA
:10520000384602F08DFC8246B210002302F088FC82
:105210000446FF2C04D3B00544600120BDE8F09F94
:105220006CE06F4800688608A6FB05700146042202
:105230000023384602F074FC82466A4A002302F0DA
:105240006FFC0446FF2C08D300210846FEF7D2FD70
:105250004FF0804044600120E0E761480068460864
:10526000A6FB0570014604220023384602F058FCD4
:1052700082465C4A002302F053FC0446FF2C08D30C
:1052800002210020FEF7B6FD4FF08040446001206F
:10529000C4E753480668A6FB05710422002338467C
:1052A00002F03EFC82464F4A002302F039FC0446DD
:1052B000FF2C08D301210020FEF79CFD4FF0804019
:1052C00044600120AAE719E04FF40046A6FB0570F0
:1052D000014604220023384602F022FC8246414A5D
:1052E000002302F01DFC0446FF2C05D3F00300E070
:1052F00003E04460012091E700E000BF00BF002010
:105300008CE770B504460D461CB1012C01D0022C6F
:1053100000D103E0AC2134A0FAF7CAFF0DB1012D92
:1053200000D103E0AD2130A0FAF7C2FF002108460A
:10533000FEF760FD4FF08040006920F003004FF061
:10534000804108610846006920430861012D04D1AD
:105350000846007840F00200087070BD72B6AA20BE
:10536000410708725520087262B6704770B505464D
:105370004FF08040046904F0030420462946FFF7FB
:1053800029FF4FF08040007840F001004FF080414D
:105390000870FFF7E3FF70BD4FF080400078C0F366
:1053A000800070474FF08040007820F004004FF0FC
:1053B00080410870704770B505464FF08040046921
:1053C00004F0030420462946FFF704FFFFF7C6FF59
:1053D00070BD4FF08040C0687047000000093D007C
:1053E0006000001040420F004353425C736F7572BF
:1053F00063655C6C7063313778785F7764742E63B3
:105400000000000001460020052912D2DFE801F06B
:105410000305080B0E00FB480CE0FA48203009E0B9
:10542000F848403006E0F748603003E0F548803047
:1054300000E000BF00BF704701460020052912D2DE
:10544000DFE801F00305080B0E00EE480CE0ED4824
:10545000203009E0EB48403006E0EA48603003E0E5
:10546000E848803000E000BF00BF704701460020E0
:10547000052912D2DFE801F00305080B0E00E14810
:105480000CE0E048203009E0DE48403006E0DD482E
:10549000603003E0DB48803000E000BF00BF7047B1
:1054A0002DE9F04107460D4616463846FFF7AAFF9C
:1054B00004463CB11EB120682843206002E0206809
:1054C000A8432060BDE8F08170B506460C46304622
:1054D000FFF798FF054605B1AC6170BD70B5064693
:1054E0000C463046FFF78EFF054605B1EC6170BDF6
:1054F00070B505462846FFF785FF04460CB1606984
:1055000070BD0020FCE718B912B9BF4B196017E055
:10551000022804D11AB9BC4B2033196010E028B915
:10552000012A03D1B84B1B1D196009E0022805D1DF
:10553000012A03D1B44B2433196001E000BFFEE718
:10554000704703463BB932B9AF480C380068C840D1
:1055500000F001007047022B07D132B9AA4814307D
:105560000068C84000F00100F4E743B9012A06D101
:10557000A54808380068C84000F00100EAE7022B9F
:1055800008D1012A06D1A04818300068C84000F0B0
:105590000100DFE700BFFEE718B99B4A121F116048
:1055A00007E0022803D1984A1C32116001E000BFD5
:1055B000FEE7704770B504460D461646324629464A
:1055C0002046FFF76DFF70BD70B504460D462946B5
:1055D0002046FFF779FF70BD70B504460D46294699
:1055E0002046FFF77BFF70BD10B504462046FFF74D
:1055F0007FFF10BD70B504460D461646324629465B
:105600002046FFF780FF70BD70B504460D46164674
:10561000324629462046FFF794FF70BD10B5034679
:105620000C4621461846FFF7B7FF10BD2DE9F041A3
:1056300007460D4616463846FFF7E4FE04463CB1E1
:105640001EB120692843206102E02069A84320613F
:10565000BDE8F0812DE9F04180460E4615461F4613
:105660004046FFF7E9FE04468CB147B11EB16088A1
:10567000284360800BE020882843208007E01EB18B
:105680006088A843608002E02088A8432080BDE8AD
:10569000F0812DE9F04180460E4615461F464046F2
:1056A000FFF7CAFE04468CB147B11EB1608A284399
:1056B00060820BE0208A2843208207E01EB1608AC6
:1056C000A843608202E0208AA8432082BDE8F081DE
:1056D0002DE9F04107460E4614463846FFF7ACFE6A
:1056E00005461DB10EB16C8300E02C83BDE8F0814E
:1056F0002DE9F04107460E4614463846FFF79CFE5A
:1057000005461DB10EB1EC8300E0AC83BDE8F0812D
:1057100070B506460D463046FFF78EFE044624B1AE
:105720000DB1E08A70BDA08AFCE70020FAE72DE900
:10573000F04180460C4616461F464046FFF796FE4F
:1057400005465DB12FB1032C08DC285D3043285598
:1057500004E0032C02DC285DB0432855BDE8F0814D
:105760002DE9F04180460C4616461F464046FFF79D
:105770007DFE05469DB14FB1032C10DC05F11000F4
:10578000005D304305F11001085508E0032C06DCEC
:1057900005F11000005DB04305F110010855BDE8AA
:1057A000F0812DE9F04107460C4615463846FFF7D3
:1057B0005DFE064626B1032C02DC06F118000555F5
:1057C000BDE8F0812DE9F04107460C461546384604
:1057D000FFF74CFE064626B1032C02DC06F11C0046
:1057E0000555BDE8F08170B506460C463046FFF71A
:1057F0003DFE054655B1032C08DC05F11400005DA3
:1058000070BD000000C00920908002400020F7E732
:1058100010B5044624B10121CA2000F0FFFA03E0CC
:105820000021CA2000F0FAFA01F045FA10BD10B5C7
:105830000020FFF7EDFF10BD10B50120FFF7E8FFD6
:1058400010BD10B50021CD2000F014FB0021CB20AD
:1058500000F010FB0021CB2000F00CFB0021CA203F
:1058600000F008FB0021CD2000F004FB0021CC203B
:1058700000F000FB0021CC2000F0FCFA10BD10B5B8
:10588000044624B10121CC2000F0C8FA03E0002135
:10589000CC2000F0C3FA01F00EFA10BD10B5CC20F8
:1058A00000F009FB044601F006FA204610BD10B5D1
:1058B000044624B10121CD2000F0B0FA03E000211C
:1058C000CD2000F0ABFA01F0F6F910BD10B5CD20F7
:1058D00000F0F1FA044601F0EEF9204610BD10B5D3
:1058E000044624B10121CB2000F098FA03E0002106
:1058F000CB2000F093FA01F0DEF910BD10B5CB20FB
:1059000000F0D9FA044601F0D6F9204610BD70B572
:10591000044600251CE004F080066006040E4EB12B
:105920000120FFF7C4FF0020FFF7A9FF0120FFF7C8
:10593000A6FF08E00020FFF7BAFF0020FFF79FFF57
:105940000120FFF79CFFFFF7D9FF0443681CC5B295
:10595000082DE0DB204670BD10B504462046FFF759
:10596000D6FF10BD10B500242046FFF7D0FF10BDB4
:10597000704710B504462046FFF7EEFF10BD10B586
:10598000FFF7F0FF10BD2DE9F04104460D46174624
:1059900000266019B0F5000F00D215B90020BDE84F
:1059A000F081FFF744FF0B20FFF7E3FFC4F307404C
:1059B000FFF7DFFFC4F30720FFF7DBFFE0B2FFF7DD
:1059C000D8FFFF20FFF7D5FF002603E0FFF7D7FF42
:1059D000B855761CAE42F9D3FFF72EFF0120DEE763
:1059E00070B505460E460024022D14D1FFF71FFFA7
:1059F0009F20FFF7BEFFFFF7C2FF20430402FFF71F
:105A0000BEFF20430402FFF7BAFF0443FFF714FF71
:105A10003460012070BD0DB1012D15D1FFF707FFD6
:105A20009020FFF7A6FF0020FFF7A3FF0020FFF75D
:105A3000A0FF2846FFF79DFFFFF7A1FF0446FFF7F1
:105A4000FBFE34600120E5E70020E3E72DE9F05F8D
:105A500004460E464FF0000AD34600270025A8460C
:105A6000A946B4F5006F02D8B6F5006F02D9002040
:105A7000BDE8F09FFFF7DBFE0520FFF77AFFFFF799
:105A80007EFF8246FFF7D8FEFFF7D1FE0620FFF724
:105A900070FFFFF7D1FEFFF7CAFE0120FFF769FF95
:105AA0000020FFF766FFFFF7C7FEFFF7C0FE0620E6
:105AB000FFF75FFFFFF7C0FEB44203D904F0FF0B0E
:105AC00034465E46B44223D12503FFF7B0FE2020C2
:105AD000FFF74FFFC5F30740FFF74BFFC5F3072064
